{
    "contractName": "GmxPlugin",
    "abi": [
        {
            "inputs": [
                {
                    "internalType": "address",
                    "name": "_localVault",
                    "type": "address"
                }
            ],
            "stateMutability": "nonpayable",
            "type": "constructor"
        },
        {
            "anonymous": false,
            "inputs": [
                {
                    "indexed": true,
                    "internalType": "address",
                    "name": "previousOwner",
                    "type": "address"
                },
                {
                    "indexed": true,
                    "internalType": "address",
                    "name": "newOwner",
                    "type": "address"
                }
            ],
            "name": "OwnershipTransferred",
            "type": "event"
        },
        {
            "anonymous": false,
            "inputs": [
                {
                    "indexed": false,
                    "internalType": "uint256",
                    "name": "poolId",
                    "type": "uint256"
                }
            ],
            "name": "PoolAdded",
            "type": "event"
        },
        {
            "anonymous": false,
            "inputs": [
                {
                    "indexed": false,
                    "internalType": "uint256",
                    "name": "poolId",
                    "type": "uint256"
                }
            ],
            "name": "PoolRemoved",
            "type": "event"
        },
        {
            "anonymous": false,
            "inputs": [
                {
                    "indexed": false,
                    "internalType": "address",
                    "name": "master",
                    "type": "address"
                }
            ],
            "name": "SetMaster",
            "type": "event"
        },
        {
            "stateMutability": "payable",
            "type": "fallback"
        },
        {
            "inputs": [],
            "name": "ASSET_DECIMALS",
            "outputs": [
                {
                    "internalType": "uint256",
                    "name": "",
                    "type": "uint256"
                }
            ],
            "stateMutability": "view",
            "type": "function"
        },
        {
            "inputs": [],
            "name": "MARKET_TOKEN_PRICE_DECIMALS",
            "outputs": [
                {
                    "internalType": "uint256",
                    "name": "",
                    "type": "uint256"
                }
            ],
            "stateMutability": "view",
            "type": "function"
        },
        {
            "inputs": [],
            "name": "PRICE_DECIMAL",
            "outputs": [
                {
                    "internalType": "uint256",
                    "name": "",
                    "type": "uint256"
                }
            ],
            "stateMutability": "view",
            "type": "function"
        },
        {
            "inputs": [
                {
                    "internalType": "uint256",
                    "name": "_poolId",
                    "type": "uint256"
                },
                {
                    "internalType": "address",
                    "name": "_indexToken",
                    "type": "address"
                },
                {
                    "internalType": "address",
                    "name": "_longToken",
                    "type": "address"
                },
                {
                    "internalType": "address",
                    "name": "_shortToken",
                    "type": "address"
                },
                {
                    "internalType": "address",
                    "name": "_marketToken",
                    "type": "address"
                }
            ],
            "name": "addPool",
            "outputs": [],
            "stateMutability": "nonpayable",
            "type": "function"
        },
        {
            "inputs": [
                {
                    "internalType": "address",
                    "name": "_tokenAddress",
                    "type": "address"
                },
                {
                    "internalType": "uint256",
                    "name": "_tokenAmount",
                    "type": "uint256"
                }
            ],
            "name": "calculateTokenValueInUsd",
            "outputs": [
                {
                    "internalType": "uint256",
                    "name": "",
                    "type": "uint256"
                }
            ],
            "stateMutability": "view",
            "type": "function"
        },
        {
            "inputs": [
                {
                    "internalType": "uint256",
                    "name": "_amount",
                    "type": "uint256"
                },
                {
                    "internalType": "uint256",
                    "name": "_from",
                    "type": "uint256"
                },
                {
                    "internalType": "uint256",
                    "name": "_to",
                    "type": "uint256"
                }
            ],
            "name": "convertDecimals",
            "outputs": [
                {
                    "internalType": "uint256",
                    "name": "",
                    "type": "uint256"
                }
            ],
            "stateMutability": "pure",
            "type": "function"
        },
        {
            "inputs": [
                {
                    "components": [
                        {
                            "components": [
                                {
                                    "internalType": "address",
                                    "name": "receiver",
                                    "type": "address"
                                },
                                {
                                    "internalType": "address",
                                    "name": "callbackContract",
                                    "type": "address"
                                },
                                {
                                    "internalType": "address",
                                    "name": "uiFeeReceiver",
                                    "type": "address"
                                },
                                {
                                    "internalType": "address",
                                    "name": "market",
                                    "type": "address"
                                },
                                {
                                    "internalType": "address",
                                    "name": "initialCollateralToken",
                                    "type": "address"
                                },
                                {
                                    "internalType": "address[]",
                                    "name": "swapPath",
                                    "type": "address[]"
                                }
                            ],
                            "internalType": "struct IExchangeRouter.CreateOrderParamsAddresses",
                            "name": "addresses",
                            "type": "tuple"
                        },
                        {
                            "components": [
                                {
                                    "internalType": "uint256",
                                    "name": "sizeDeltaUsd",
                                    "type": "uint256"
                                },
                                {
                                    "internalType": "uint256",
                                    "name": "initialCollateralDeltaAmount",
                                    "type": "uint256"
                                },
                                {
                                    "internalType": "uint256",
                                    "name": "triggerPrice",
                                    "type": "uint256"
                                },
                                {
                                    "internalType": "uint256",
                                    "name": "acceptablePrice",
                                    "type": "uint256"
                                },
                                {
                                    "internalType": "uint256",
                                    "name": "executionFee",
                                    "type": "uint256"
                                },
                                {
                                    "internalType": "uint256",
                                    "name": "callbackGasLimit",
                                    "type": "uint256"
                                },
                                {
                                    "internalType": "uint256",
                                    "name": "minOutputAmount",
                                    "type": "uint256"
                                }
                            ],
                            "internalType": "struct IExchangeRouter.CreateOrderParamsNumbers",
                            "name": "numbers",
                            "type": "tuple"
                        },
                        {
                            "internalType": "enum IExchangeRouter.OrderType",
                            "name": "orderType",
                            "type": "uint8"
                        },
                        {
                            "internalType": "enum IExchangeRouter.DecreasePositionSwapType",
                            "name": "decreasePositionSwapType",
                            "type": "uint8"
                        },
                        {
                            "internalType": "bool",
                            "name": "isLong",
                            "type": "bool"
                        },
                        {
                            "internalType": "bool",
                            "name": "shouldUnwrapNativeToken",
                            "type": "bool"
                        },
                        {
                            "internalType": "bytes32",
                            "name": "referralCode",
                            "type": "bytes32"
                        }
                    ],
                    "internalType": "struct IExchangeRouter.CreateOrderParams",
                    "name": "_params",
                    "type": "tuple"
                },
                {
                    "internalType": "uint256",
                    "name": "amount",
                    "type": "uint256"
                }
            ],
            "name": "createOrder",
            "outputs": [],
            "stateMutability": "nonpayable",
            "type": "function"
        },
        {
            "inputs": [
                {
                    "internalType": "enum IPlugin.ActionType",
                    "name": "_actionType",
                    "type": "uint8"
                },
                {
                    "internalType": "bytes",
                    "name": "_payload",
                    "type": "bytes"
                }
            ],
            "name": "execute",
            "outputs": [],
            "stateMutability": "payable",
            "type": "function"
        },
        {
            "inputs": [
                {
                    "internalType": "uint256",
                    "name": "_poolId",
                    "type": "uint256"
                }
            ],
            "name": "findPoolIndexById",
            "outputs": [
                {
                    "internalType": "uint256",
                    "name": "poolIndex",
                    "type": "uint256"
                }
            ],
            "stateMutability": "view",
            "type": "function"
        },
        {
            "inputs": [
                {
                    "internalType": "uint256",
                    "name": "_poolId",
                    "type": "uint256"
                },
                {
                    "internalType": "bool",
                    "name": "_maximize",
                    "type": "bool"
                }
            ],
            "name": "getMarketTokenPrice",
            "outputs": [
                {
                    "internalType": "int256",
                    "name": "",
                    "type": "int256"
                }
            ],
            "stateMutability": "view",
            "type": "function"
        },
        {
            "inputs": [],
            "name": "getPoolNumber",
            "outputs": [
                {
                    "internalType": "uint256",
                    "name": "",
                    "type": "uint256"
                }
            ],
            "stateMutability": "view",
            "type": "function"
        },
        {
            "inputs": [],
            "name": "getPools",
            "outputs": [
                {
                    "components": [
                        {
                            "internalType": "uint256",
                            "name": "poolId",
                            "type": "uint256"
                        },
                        {
                            "internalType": "address",
                            "name": "indexToken",
                            "type": "address"
                        },
                        {
                            "internalType": "address",
                            "name": "longToken",
                            "type": "address"
                        },
                        {
                            "internalType": "address",
                            "name": "shortToken",
                            "type": "address"
                        },
                        {
                            "internalType": "address",
                            "name": "marketToken",
                            "type": "address"
                        }
                    ],
                    "internalType": "struct GmxPlugin.PoolConfig[]",
                    "name": "",
                    "type": "tuple[]"
                }
            ],
            "stateMutability": "view",
            "type": "function"
        },
        {
            "inputs": [],
            "name": "getTotalLiquidity",
            "outputs": [
                {
                    "internalType": "uint256",
                    "name": "totalAsset",
                    "type": "uint256"
                }
            ],
            "stateMutability": "view",
            "type": "function"
        },
        {
            "inputs": [],
            "name": "getUniqueTokens",
            "outputs": [
                {
                    "internalType": "address[]",
                    "name": "",
                    "type": "address[]"
                }
            ],
            "stateMutability": "view",
            "type": "function"
        },
        {
            "inputs": [],
            "name": "gmxParams",
            "outputs": [
                {
                    "internalType": "address",
                    "name": "uiFeeReceiver",
                    "type": "address"
                },
                {
                    "internalType": "address",
                    "name": "callbackContract",
                    "type": "address"
                },
                {
                    "internalType": "uint256",
                    "name": "callbackGasLimit",
                    "type": "uint256"
                },
                {
                    "internalType": "uint256",
                    "name": "executionFee",
                    "type": "uint256"
                },
                {
                    "internalType": "bool",
                    "name": "shouldUnwrapNativeToken",
                    "type": "bool"
                }
            ],
            "stateMutability": "view",
            "type": "function"
        },
        {
            "inputs": [],
            "name": "localVault",
            "outputs": [
                {
                    "internalType": "address",
                    "name": "",
                    "type": "address"
                }
            ],
            "stateMutability": "view",
            "type": "function"
        },
        {
            "inputs": [],
            "name": "master",
            "outputs": [
                {
                    "internalType": "address",
                    "name": "",
                    "type": "address"
                }
            ],
            "stateMutability": "view",
            "type": "function"
        },
        {
            "inputs": [],
            "name": "owner",
            "outputs": [
                {
                    "internalType": "address",
                    "name": "",
                    "type": "address"
                }
            ],
            "stateMutability": "view",
            "type": "function"
        },
        {
            "inputs": [
                {
                    "internalType": "uint256",
                    "name": "",
                    "type": "uint256"
                }
            ],
            "name": "poolExistsMap",
            "outputs": [
                {
                    "internalType": "bool",
                    "name": "",
                    "type": "bool"
                }
            ],
            "stateMutability": "view",
            "type": "function"
        },
        {
            "inputs": [
                {
                    "internalType": "uint256",
                    "name": "",
                    "type": "uint256"
                }
            ],
            "name": "pools",
            "outputs": [
                {
                    "internalType": "uint256",
                    "name": "poolId",
                    "type": "uint256"
                },
                {
                    "internalType": "address",
                    "name": "indexToken",
                    "type": "address"
                },
                {
                    "internalType": "address",
                    "name": "longToken",
                    "type": "address"
                },
                {
                    "internalType": "address",
                    "name": "shortToken",
                    "type": "address"
                },
                {
                    "internalType": "address",
                    "name": "marketToken",
                    "type": "address"
                }
            ],
            "stateMutability": "view",
            "type": "function"
        },
        {
            "inputs": [
                {
                    "internalType": "uint256",
                    "name": "_poolId",
                    "type": "uint256"
                }
            ],
            "name": "removePool",
            "outputs": [],
            "stateMutability": "nonpayable",
            "type": "function"
        },
        {
            "inputs": [],
            "name": "renounceOwnership",
            "outputs": [],
            "stateMutability": "nonpayable",
            "type": "function"
        },
        {
            "inputs": [],
            "name": "routerConfig",
            "outputs": [
                {
                    "internalType": "address",
                    "name": "exchangeRouter",
                    "type": "address"
                },
                {
                    "internalType": "address",
                    "name": "router",
                    "type": "address"
                },
                {
                    "internalType": "address",
                    "name": "depositVault",
                    "type": "address"
                },
                {
                    "internalType": "address",
                    "name": "withdrawVault",
                    "type": "address"
                },
                {
                    "internalType": "address",
                    "name": "orderVault",
                    "type": "address"
                },
                {
                    "internalType": "address",
                    "name": "reader",
                    "type": "address"
                }
            ],
            "stateMutability": "view",
            "type": "function"
        },
        {
            "inputs": [
                {
                    "internalType": "address",
                    "name": "_uiFeeReceiver",
                    "type": "address"
                },
                {
                    "internalType": "address",
                    "name": "_callbackContract",
                    "type": "address"
                },
                {
                    "internalType": "uint256",
                    "name": "_callbackGasLimit",
                    "type": "uint256"
                },
                {
                    "internalType": "uint256",
                    "name": "_executionFee",
                    "type": "uint256"
                },
                {
                    "internalType": "bool",
                    "name": "_shouldUnwrapNativeToken",
                    "type": "bool"
                }
            ],
            "name": "setGmxParams",
            "outputs": [],
            "stateMutability": "nonpayable",
            "type": "function"
        },
        {
            "inputs": [
                {
                    "internalType": "address",
                    "name": "_master",
                    "type": "address"
                }
            ],
            "name": "setMaster",
            "outputs": [],
            "stateMutability": "nonpayable",
            "type": "function"
        },
        {
            "inputs": [
                {
                    "internalType": "address",
                    "name": "_exchangeRouter",
                    "type": "address"
                },
                {
                    "internalType": "address",
                    "name": "_router",
                    "type": "address"
                },
                {
                    "internalType": "address",
                    "name": "_depositVault",
                    "type": "address"
                },
                {
                    "internalType": "address",
                    "name": "_withdrawVault",
                    "type": "address"
                },
                {
                    "internalType": "address",
                    "name": "_orderVault",
                    "type": "address"
                },
                {
                    "internalType": "address",
                    "name": "_reader",
                    "type": "address"
                }
            ],
            "name": "setRouterConfig",
            "outputs": [],
            "stateMutability": "nonpayable",
            "type": "function"
        },
        {
            "inputs": [
                {
                    "internalType": "address",
                    "name": "_tokenPriceConsumer",
                    "type": "address"
                }
            ],
            "name": "setTokenPriceConsumer",
            "outputs": [],
            "stateMutability": "nonpayable",
            "type": "function"
        },
        {
            "inputs": [],
            "name": "tokenPriceConsumer",
            "outputs": [
                {
                    "internalType": "address",
                    "name": "",
                    "type": "address"
                }
            ],
            "stateMutability": "view",
            "type": "function"
        },
        {
            "inputs": [
                {
                    "internalType": "address",
                    "name": "newOwner",
                    "type": "address"
                }
            ],
            "name": "transferOwnership",
            "outputs": [],
            "stateMutability": "nonpayable",
            "type": "function"
        },
        {
            "inputs": [
                {
                    "internalType": "uint256",
                    "name": "",
                    "type": "uint256"
                }
            ],
            "name": "uniqueTokens",
            "outputs": [
                {
                    "internalType": "address",
                    "name": "",
                    "type": "address"
                }
            ],
            "stateMutability": "view",
            "type": "function"
        },
        {
            "stateMutability": "payable",
            "type": "receive"
        }
    ],
    "bytecode": "60806040523480156200001157600080fd5b506040516200432538038062004325833981016040819052620000349162000110565b6200003f33620000c0565b6001600160a01b0381166200009a5760405162461bcd60e51b815260206004820152601460248201527f474d583a20496e76616c69642041646472657373000000000000000000000000604482015260640160405180910390fd5b600280546001600160a01b0319166001600160a01b039290921691909117905562000142565b600080546001600160a01b038381166001600160a01b0319831681178455604051919092169283917f8be0079c531659141344cd1fd0a4f28419497f9722a3daafe3b4186f6b6457e09190a35050565b6000602082840312156200012357600080fd5b81516001600160a01b03811681146200013b57600080fd5b9392505050565b6141d380620001526000396000f3fe6080604052600436106101b95760003560e01c8063a38dcbd0116100eb578063df77209b1161008f578063ee97f7f311610061578063ee97f7f3146105fa578063f2fde38b1461061a578063f4db89841461053b578063fb4d364c1461063a57005b8063df77209b14610565578063e060394b14610585578063e48caf8d146105a5578063ea5a5486146105ba57005b8063beafdc24116100c8578063beafdc24146104fb578063c0941d6f1461051b578063c5849de61461053b578063d064f7d01461055057005b8063a38dcbd014610465578063a7888a3414610485578063ac4afa38146104a557005b80633b0f67f61161015d5780636e862fdb1161012f5780636e862fdb146103f2578063715018a6146104125780638240a8e3146104275780638da5cb5b1461044757005b80633b0f67f6146103255780634312a7f8146103455780634df227e414610365578063673a2a1f146103d057005b806326fae0d31161019657806326fae0d3146102a257806327824675146102c257806335c7e925146102f057806336a605031461030557005b8063050705bb146101c2578063084475861461024857806326a1809b1461028057005b366101c057005b005b3480156101ce57600080fd5b50600354600454600554600654600754600854610201956001600160a01b03908116958116948116938116928116911686565b604080516001600160a01b03978816815295871660208701529386169385019390935290841660608401528316608083015290911660a082015260c0015b60405180910390f35b34801561025457600080fd5b50601154610268906001600160a01b031681565b6040516001600160a01b03909116815260200161023f565b34801561028c57600080fd5b5061029561064d565b60405161023f9190612f7b565b3480156102ae57600080fd5b506101c06102bd366004612fed565b6106af565b3480156102ce57600080fd5b506102e26102dd36600461300a565b61073a565b60405190815260200161023f565b3480156102fc57600080fd5b506102e261078f565b34801561031157600080fd5b506102e2610320366004613036565b610a86565b34801561033157600080fd5b506102e261034036600461307b565b610c71565b34801561035157600080fd5b506101c06103603660046130ab565b61114a565b34801561037157600080fd5b50600954600a54600b54600c54600d5461039b946001600160a01b03908116941692919060ff1685565b604080516001600160a01b0396871681529590941660208601529284019190915260608301521515608082015260a00161023f565b3480156103dc57600080fd5b506103e5611411565b60405161023f9190613113565b3480156103fe57600080fd5b506101c061040d366004613191565b6114b0565b34801561041e57600080fd5b506101c06115e1565b34801561043357600080fd5b506102e2610442366004613213565b6115f5565b34801561045357600080fd5b506000546001600160a01b0316610268565b34801561047157600080fd5b506101c0610480366004613213565b611685565b34801561049157600080fd5b506101c06104a0366004612fed565b61184d565b3480156104b157600080fd5b506104c56104c0366004613213565b61189d565b604080519586526001600160a01b039485166020870152928416928501929092528216606084015216608082015260a00161023f565b34801561050757600080fd5b50610268610516366004613213565b6118ef565b34801561052757600080fd5b506101c06105363660046134a0565b611919565b34801561054757600080fd5b506102e2601281565b34801561055c57600080fd5b506102e2601e81565b34801561057157600080fd5b50600254610268906001600160a01b031681565b34801561059157600080fd5b506101c06105a036600461357c565b611b38565b3480156105b157600080fd5b50600e546102e2565b3480156105c657600080fd5b506105ea6105d5366004613213565b600f6020526000908152604090205460ff1681565b604051901515815260200161023f565b34801561060657600080fd5b50600154610268906001600160a01b031681565b34801561062657600080fd5b506101c0610635366004612fed565b611bb0565b6101c06106483660046135cd565b611c29565b606060108054806020026020016040519081016040528092919081815260200182805480156106a557602002820191906000526020600020905b81546001600160a01b03168152600190910190602001808311610687575b5050505050905090565b6106b7611cbf565b6001600160a01b0381166106e65760405162461bcd60e51b81526004016106dd90613656565b60405180910390fd5b600180546001600160a01b0319166001600160a01b0383169081179091556040519081527ff99fa88eea69230a6cd10f2bb3175a40f5b112fab22b3c24aa0ae11d9caf59bc9060200160405180910390a150565b60008183106107695761074d828461369a565b61075890600a613791565b610762908561379d565b9050610788565b610773838361369a565b61077e90600a613791565b61076290856137bf565b9392505050565b6000805b60105481101561087a576000601082815481106107b2576107b26137d6565b60009182526020822001546040516370a0823160e01b81523060048201526001600160a01b03909116925082906370a0823190602401602060405180830381865afa158015610805573d6000803e3d6000fd5b505050506040513d601f19601f8201168201806040525081019061082991906137ec565b90506108516040518060400160405280600281526020016111cf60f21b815250848484611d19565b61085b8282610a86565b6108659085613805565b935050508061087390613818565b9050610793565b5060005b600e54811015610a55576000600e828154811061089d5761089d6137d6565b6000918252602082206004600592909202018101546040516370a0823160e01b815230928101929092526001600160a01b0316925082906370a0823190602401602060405180830381865afa1580156108fa573d6000803e3d6000fd5b505050506040513d601f19601f8201168201806040525081019061091e91906137ec565b9050600061092d846001610c71565b9050610959604051806040016040528060078152602001660adb585c9ad95d60ca1b8152508284611d68565b600061096582846137bf565b90506000601e856001600160a01b031663313ce5676040518163ffffffff1660e01b8152600401602060405180830381865afa1580156109a9573d6000803e3d6000fd5b505050506040513d601f19601f820116820180604052508101906109cd9190613840565b60ff166109da9190613805565b905060006109f16109ec60128461385d565b611daf565b9050600060128310610a1957610a0882600a613791565b610a12908561379d565b9050610a31565b610a2482600a613791565b610a2e90856137bf565b90505b610a3b818a613805565b98505050505050505080610a4e90613818565b905061087e565b50610a836040518060400160405280600b81526020016a0add1bdd185b105cdcd95d60aa1b81525082611dc7565b90565b600080836001600160a01b031663313ce5676040518163ffffffff1660e01b8152600401602060405180830381865afa158015610ac7573d6000803e3d6000fd5b505050506040513d601f19601f82011682018060405250810190610aeb9190613840565b601154604051636a24d41960e11b81526001600160a01b03878116600483015260ff9390931693506000929091169063d449a83290602401602060405180830381865afa158015610b40573d6000803e3d6000fd5b505050506040513d601f19601f82011682018060405250810190610b649190613840565b601154604051630681320d60e51b81526001600160a01b03888116600483015260ff9390931693506000929091169063d02641a090602401602060405180830381865afa158015610bb9573d6000803e3d6000fd5b505050506040513d601f19601f82011682018060405250810190610bdd91906137ec565b905060006012610bed8486613805565b10610c34576012610bfe8486613805565b610c08919061369a565b9050610c1581600a613791565b610c1f83886137bf565b610c29919061379d565b945050505050610c6b565b82610c4085601261369a565b610c4a919061369a565b9050610c5781600a613791565b610c6183886137bf565b610c2991906137bf565b92915050565b600080600e8481548110610c8757610c876137d6565b600091825260208083206040805160a08101825260059094029091018054845260018101546001600160a01b03908116858501526002820154811685840152600380830154821660608701526004928301548216608087015254835163660d0d6760e01b81529351959750169493859363660d0d679380840193919291908290030181865afa158015610d1e573d6000803e3d6000fd5b505050506040513d601f19601f82011682018060405250810190610d429190613884565b60115460408051608080820183528701516001600160a01b0390811682528783018051821660208085019190915290518216838501526060808a015183169084015283518085019485905290890151630681320d60e51b909452928116604484015293945092909116919060009080610e7b8563d02641a0606484015b602060405180830381865afa158015610ddc573d6000803e3d6000fd5b505050506040513d601f19601f82011682018060405250810190610e0091906137ec565b60208a0151604051636a24d41960e11b81526001600160a01b0391821660048201529088169063d449a832906024015b602060405180830381865afa158015610e4d573d6000803e3d6000fd5b505050506040513d601f19601f82011682018060405250810190610e719190613840565b60ff16601261073a565b8152602088810151604051630681320d60e51b81526001600160a01b0391821660048201529190920191610ebb919087169063d02641a090602401610dbf565b90526040805180820180835291890151630681320d60e51b9092526001600160a01b039182166044820152919250600091908190610f7490871663d02641a0606484015b602060405180830381865afa158015610f1c573d6000803e3d6000fd5b505050506040513d601f19601f82011682018060405250810190610f4091906137ec565b60408b8101519051636a24d41960e11b81526001600160a01b0391821660048201529089169063d449a83290602401610e30565b81526040808a01519051630681320d60e51b81526001600160a01b039182166004820152602090920191610fb39188169063d02641a090602401610eff565b9052604080518082019182905260608a0151630681320d60e51b9092526001600160a01b03918216604482015291925060009190819061106e90881663d02641a0606484015b602060405180830381865afa158015611016573d6000803e3d6000fd5b505050506040513d601f19601f8201168201806040525081019061103a91906137ec565b60608c0151604051636a24d41960e11b81526001600160a01b039182166004820152908a169063d449a83290602401610e30565b815260608a0151604051630681320d60e51b81526001600160a01b0391821660048201526020909201916110ad9189169063d02641a090602401610ff9565b905260085460405163095ce6c560e01b81529192506000918c9183916001600160a01b039091169063095ce6c5906110f5908c908b908b908b908b9089908b906004016138a1565b61018060405180830381865afa158015611113573d6000803e3d6000fd5b505050506040513d601f19601f82011682018060405250810190611137919061393c565b509e9d5050505050505050505050505050565b611152611cbf565b6000858152600f602052604090205460ff16156111c35760405162461bcd60e51b815260206004820152602960248201527f474d583a20506f6f6c2077697468207468697320706f6f6c496420616c72656160448201526864792065786973747360b81b60648201526084016106dd565b6040805160a0810182528681526001600160a01b0386811660208084019182528783168486019081528784166060860190815287851660808701908152600e805460018082018355600092835289517fbb7b4a454dc3493923482f07822329ed19e8244eff582cc204f8554c3620c3fd60059093029283015596517fbb7b4a454dc3493923482f07822329ed19e8244eff582cc204f8554c3620c3fe820180546001600160a01b0319908116928b1692909217905594517fbb7b4a454dc3493923482f07822329ed19e8244eff582cc204f8554c3620c3ff820180548716918a1691909117905592517fbb7b4a454dc3493923482f07822329ed19e8244eff582cc204f8554c3620c40084018054861691891691909117905590517fbb7b4a454dc3493923482f07822329ed19e8244eff582cc204f8554c3620c401909201805490931691909516179055898352600f9052929020805460ff191690921790915561132d84611e10565b61137d57601080546001810182556000919091527f1b6847dc741a1b0cd08d278845f9d819d87b734759afb55fe2de5cb82a9ae6720180546001600160a01b0319166001600160a01b0386161790555b61138683611e10565b6113d657601080546001810182556000919091527f1b6847dc741a1b0cd08d278845f9d819d87b734759afb55fe2de5cb82a9ae6720180546001600160a01b0319166001600160a01b0385161790555b6040518681527f522b283dfad3650433b41164a9379b13dc60bbf24676affdc6a33c84dd3ac15d9060200160405180910390a1505050505050565b6060600e805480602002602001604051908101604052809291908181526020016000905b828210156114a75760008481526020908190206040805160a08101825260058602909201805483526001808201546001600160a01b0390811685870152600283015481169385019390935260038201548316606085015260049091015490911660808301529083529092019101611435565b50505050905090565b6114b8611cbf565b6001600160a01b038616158015906114d857506001600160a01b03851615155b80156114ec57506001600160a01b03841615155b801561150057506001600160a01b03831615155b801561151457506001600160a01b03821615155b801561152857506001600160a01b03811615155b6115445760405162461bcd60e51b81526004016106dd90613656565b6040805160c0810182526001600160a01b039788168082529688166020820181905295881691810182905293871660608501819052928716608085018190529190961660a0909301839052600380546001600160a01b031990811690961790556004805486169094179093556005805485169095179094556006805484169094179093556007805483169091179055600880549091169091179055565b6115e9611cbf565b6115f36000611e77565b565b6000805b600e548110156116465782600e8281548110611617576116176137d6565b906000526020600020906005020160000154036116345792915050565b8061163e81613818565b9150506115f9565b5060405162461bcd60e51b815260206004820152601360248201527211d3560e88141bdbdb081b9bdd08199bdd5b99606a1b60448201526064016106dd565b61168d611cbf565b6000818152600f602052604090205460ff166116bb5760405162461bcd60e51b81526004016106dd906139f0565b60006116c6826115f5565b600e549091506000906116db9060019061369a565b905080821461179757600e81815481106116f7576116f76137d6565b9060005260206000209060050201600e8381548110611718576117186137d6565b60009182526020909120825460059092020190815560018083015490820180546001600160a01b03199081166001600160a01b0393841617909155600280850154908401805483169184169190911790556003808501549084018054831691841691909117905560049384015493909201805490921692169190911790555b600e8054806117a8576117a8613a39565b600082815260208082206005600019909401938402018281556001810180546001600160a01b0319908116909155600282018054821690556003820180548216905560049091018054909116905591909255848252600f905260409020805460ff19169055611815611ec7565b6040518381527f35ab5a1a55463270dd163e40e2dc7065e80802432f9a2044222f018979ff36269060200160405180910390a1505050565b611855611cbf565b6001600160a01b03811661187b5760405162461bcd60e51b81526004016106dd90613656565b601180546001600160a01b0319166001600160a01b0392909216919091179055565b600e81815481106118ad57600080fd5b6000918252602090912060059091020180546001820154600283015460038401546004909401549294506001600160a01b039182169390821692908216911685565b601081815481106118ff57600080fd5b6000918252602090912001546001600160a01b0316905081565b6001546001600160a01b031633146119645760405162461bcd60e51b815260206004820152600e60248201526d24b73b30b634b21031b0b63632b960911b60448201526064016106dd565b81516080908101516020840151909101516004805460405163095ea7b360e01b81526001600160a01b03918216928101929092526024820185905283169063095ea7b3906044016020604051808303816000875af11580156119ca573d6000803e3d6000fd5b505050506040513d601f19601f820116820180604052508101906119ee9190613a4f565b50600354600754604051637d39aaf160e01b81526001600160a01b039182166004820152602481018490529116908190637d39aaf19084906044016000604051808303818588803b158015611a4257600080fd5b505af1158015611a56573d6000803e3d6000fd5b5050600754604051631cdacd5960e31b81526001600160a01b03808716955063e6d66ac89450611a8f9350889216908990600401613a6c565b600060405180830381600087803b158015611aa957600080fd5b505af1158015611abd573d6000803e3d6000fd5b5050604051634a393a4160e01b81526001600160a01b0384169250634a393a419150611aed908890600401613b0e565b6020604051808303816000875af1158015611b0c573d6000803e3d6000fd5b505050506040513d601f19601f82011682018060405250810190611b3091906137ec565b505050505050565b611b40611cbf565b6040805160a0810182526001600160a01b039687168082529590961660208701819052908601849052606086018390529015156080909501859052600980546001600160a01b03199081169095179055600a805490941617909255600b55600c55600d805460ff19169091179055565b611bb8611cbf565b6001600160a01b038116611c1d5760405162461bcd60e51b815260206004820152602660248201527f4f776e61626c653a206e6577206f776e657220697320746865207a65726f206160448201526564647265737360d01b60648201526084016106dd565b611c2681611e77565b50565b6002546001600160a01b03163314611c745760405162461bcd60e51b815260206004820152600e60248201526d24b73b30b634b21031b0b63632b960911b60448201526064016106dd565b6000836001811115611c8857611c88613ad4565b03611c9c57611c978282611fd5565b505050565b6001836001811115611cb057611cb0613ad4565b03611c9757611c978282612370565b6000546001600160a01b031633146115f35760405162461bcd60e51b815260206004820181905260248201527f4f776e61626c653a2063616c6c6572206973206e6f7420746865206f776e657260448201526064016106dd565b611d6284848484604051602401611d339493929190613c7b565b60408051601f198184030181529190526020810180516001600160e01b03166327827ee360e11b17905261238d565b50505050565b611c97838383604051602401611d8093929190613cb3565b60408051601f198184030181529190526020810180516001600160e01b031663ca47c4eb60e01b17905261238d565b6000808212611dbe5781610c6b565b610c6b82613cd8565b611e0c8282604051602401611ddd929190613cf4565b60408051601f198184030181529190526020810180516001600160e01b0316632d839cb360e21b17905261238d565b5050565b6000805b601054811015611e6e57826001600160a01b031660108281548110611e3b57611e3b6137d6565b6000918252602090912001546001600160a01b031603611e5e5750600192915050565b611e6781613818565b9050611e14565b50600092915050565b600080546001600160a01b038381166001600160a01b0319831681178455604051919092169283917f8be0079c531659141344cd1fd0a4f28419497f9722a3daafe3b4186f6b6457e09190a35050565b6010545b8015611c2657611f0b6010611ee160018461369a565b81548110611ef157611ef16137d6565b6000918252602090912001546001600160a01b03166123ae565b611fc35760108054611f1f9060019061369a565b81548110611f2f57611f2f6137d6565b6000918252602090912001546001600160a01b03166010611f5160018461369a565b81548110611f6157611f616137d6565b9060005260206000200160006101000a8154816001600160a01b0302191690836001600160a01b031602179055506010805480611fa057611fa0613a39565b600082815260209020810160001990810180546001600160a01b03191690550190555b80611fcd81613d16565b915050611ecb565b60008080611fe584860186613d2d565b60ff8084166000908152600f602052604090205493965091945092501661201e5760405162461bcd60e51b81526004016106dd906139f0565b81516002148015612030575080516002145b61207c5760405162461bcd60e51b815260206004820152601b60248201527f474d583a204172726179206c656e677468206d7573742062652032000000000060448201526064016106dd565b600061208a8460ff166115f5565b90506000600e82815481106120a1576120a16137d6565b600091825260208083206040805160a08101825260059094029091018054845260018101546001600160a01b03908116938501939093526002810154831691840191909152600381015482166060840152600401541660808201528551909250859190612110576121106137d6565b60200260200101516001600160a01b031681604001516001600160a01b031614801561216b57508360018151811061214a5761214a6137d6565b60200260200101516001600160a01b031681606001516001600160a01b0316145b6121b75760405162461bcd60e51b815260206004820152601860248201527f474d583a20496e76616c696420506f6f6c20746f6b656e73000000000000000060448201526064016106dd565b826000815181106121ca576121ca6137d6565b602002602001015160001415806121fc5750826001815181106121ef576121ef6137d6565b6020026020010151600014155b6122485760405162461bcd60e51b815260206004820152601960248201527f474d583a20496e76616c696420746f6b656e20616d6f756e740000000000000060448201526064016106dd565b60008360008151811061225d5761225d6137d6565b602002602001015111156122b75760025483516122b7916001600160a01b03169030908690600090612291576122916137d6565b602002602001015184604001516001600160a01b0316612459909392919063ffffffff16565b6000836001815181106122cc576122cc6137d6565b60200260200101511115612328576002548351612328916001600160a01b031690309086906001908110612302576123026137d6565b602002602001015184606001516001600160a01b0316612459909392919063ffffffff16565b612367858460008151811061233f5761233f6137d6565b60200260200101518560018151811061235a5761235a6137d6565b60200260200101516124b1565b50505050505050565b60008061237f83850185613df9565b91509150611d628282612903565b80516a636f6e736f6c652e6c6f67602083016000808483855afa5050505050565b6000805b600e54811015611e6e57826001600160a01b0316600e82815481106123d9576123d96137d6565b60009182526020909120600260059092020101546001600160a01b031614806124395750826001600160a01b0316600e828154811061241a5761241a6137d6565b60009182526020909120600360059092020101546001600160a01b0316145b156124475750600192915050565b8061245181613818565b9150506123b2565b611d62846323b872dd60e01b85858560405160240161247a93929190613a6c565b60408051601f198184030181529190526020810180516001600160e01b03166001600160e01b031990931692909217909152612d28565b6000600e6124c18560ff166115f5565b815481106124d1576124d16137d6565b600091825260208083206040805160a0808201835260059095029092018054835260018101546001600160a01b03908116848601526002820154811684840181905260038084015483166060808801829052600490950154841660808089018290529254600c54885161018081018a52308152600a5488169b81019b909b526009548716988b019890985289870182905292890184905298880181905260c0880185905260e08801859052610100880199909952600d5460ff1615156101208801526101408701859052600b5461016088015294985093169592949293909182918a15612633576004805460405163095ea7b360e01b81526001600160a01b0391821692810192909252602482018d905288169063095ea7b3906044016020604051808303816000875af115801561260d573d6000803e3d6000fd5b505050506040513d601f19601f820116820180604052508101906126319190613a4f565b505b89156126b4576004805460405163095ea7b360e01b81526001600160a01b0391821692810192909252602482018c905287169063095ea7b3906044016020604051808303816000875af115801561268e573d6000803e3d6000fd5b505050506040513d601f19601f820116820180604052508101906126b29190613a4f565b505b60408051600480825260a08201909252600091816020015b60608152602001906001900390816126cc579050506005546040516001600160a01b0390911660248201526044810185905290915060640160408051601f198184030181529190526020810180516001600160e01b0316637d39aaf160e01b17905281518290600090612741576127416137d6565b602090810291909101015260055460405161276e918a916001600160a01b03909116908f90602401613a6c565b60408051601f198184030181529190526020810180516001600160e01b0316631cdacd5960e31b1790528151829060019081106127ad576127ad6137d6565b60209081029190910101526005546040516127da9189916001600160a01b03909116908e90602401613a6c565b60408051601f198184030181529190526020810180516001600160e01b0316631cdacd5960e31b179052815182906002908110612819576128196137d6565b6020026020010181905250816040516024016128359190613e17565b60408051601f198184030181529190526020810180516001600160e01b0316635b4e956160e01b179052815182906003908110612874576128746137d6565b6020026020010181905250886001600160a01b031663ac9650d884836040518363ffffffff1660e01b81526004016128ac9190613f20565b60006040518083038185885af11580156128ca573d6000803e3d6000fd5b50505050506040513d6000823e601f3d908101601f191682016040526128f39190810190613f82565b5050505050505050505050505050565b6000600e6129138460ff166115f5565b81548110612923576129236137d6565b600091825260208083206040805160a0810182526005949094029091018054845260018101546001600160a01b0390811693850193909352600281015483168483015260038082015484166060808701919091526004928301548516608087018190529154600c5494516370a0823160e01b81523094810194909452959750949093169484939182906370a0823190602401602060405180830381865afa1580156129d2573d6000803e3d6000fd5b505050506040513d601f19601f820116820180604052508101906129f691906137ec565b9050878110158015612a085750600088115b612a635760405162461bcd60e51b815260206004820152602660248201527f474d583a20496e73756666696369656e74206d61726b657420746f6b656e2062604482015265616c616e636560d01b60648201526084016106dd565b60408051610160810182526002546001600160a01b039081168252600a5481166020830152600954811682840152848116606083018190526080830189905260a08301889052600060c0840181905260e0840152600d5460ff1615156101008401526101208301879052600b5461014084015260048054945163095ea7b360e01b81529490921691840191909152602483018b9052909163095ea7b3906044016020604051808303816000875af1158015612b22573d6000803e3d6000fd5b505050506040513d601f19601f82011682018060405250810190612b469190613a4f565b5060408051600380825260808201909252600091816020015b6060815260200190600190039081612b5f579050506006546040516001600160a01b0390911660248201526044810187905290915060640160408051601f198184030181529190526020810180516001600160e01b0316637d39aaf160e01b17905281518290600090612bd457612bd46137d6565b6020908102919091010152600654604051612c019186916001600160a01b03909116908d90602401613a6c565b60408051601f198184030181529190526020810180516001600160e01b0316631cdacd5960e31b179052815182906001908110612c4057612c406137d6565b602002602001018190525081604051602401612c5c9190614086565b60408051601f198184030181529190526020810180516001600160e01b031663ad23c5a160e01b179052815182906002908110612c9b57612c9b6137d6565b6020026020010181905250876001600160a01b031663ac9650d886836040518363ffffffff1660e01b8152600401612cd39190613f20565b60006040518083038185885af1158015612cf1573d6000803e3d6000fd5b50505050506040513d6000823e601f3d908101601f19168201604052612d1a9190810190613f82565b505050505050505050505050565b6000612d7d826040518060400160405280602081526020017f5361666545524332303a206c6f772d6c6576656c2063616c6c206661696c6564815250856001600160a01b0316612dfa9092919063ffffffff16565b805190915015611c975780806020019051810190612d9b9190613a4f565b611c975760405162461bcd60e51b815260206004820152602a60248201527f5361666545524332303a204552433230206f7065726174696f6e20646964206e6044820152691bdd081cdd58d8d9595960b21b60648201526084016106dd565b6060612e098484600085612e11565b949350505050565b606082471015612e725760405162461bcd60e51b815260206004820152602660248201527f416464726573733a20696e73756666696369656e742062616c616e636520666f6044820152651c8818d85b1b60d21b60648201526084016106dd565b6001600160a01b0385163b612ec95760405162461bcd60e51b815260206004820152601d60248201527f416464726573733a2063616c6c20746f206e6f6e2d636f6e747261637400000060448201526064016106dd565b600080866001600160a01b03168587604051612ee5919061416e565b60006040518083038185875af1925050503d8060008114612f22576040519150601f19603f3d011682016040523d82523d6000602084013e612f27565b606091505b5091509150612f37828286612f42565b979650505050505050565b60608315612f51575081610788565b825115612f615782518084602001fd5b8160405162461bcd60e51b81526004016106dd919061418a565b6020808252825182820181905260009190848201906040850190845b81811015612fbc5783516001600160a01b031683529284019291840191600101612f97565b50909695505050505050565b6001600160a01b0381168114611c2657600080fd5b8035612fe881612fc8565b919050565b600060208284031215612fff57600080fd5b813561078881612fc8565b60008060006060848603121561301f57600080fd5b505081359360208301359350604090920135919050565b6000806040838503121561304957600080fd5b823561305481612fc8565b946020939093013593505050565b8015158114611c2657600080fd5b8035612fe881613062565b6000806040838503121561308e57600080fd5b8235915060208301356130a081613062565b809150509250929050565b600080600080600060a086880312156130c357600080fd5b8535945060208601356130d581612fc8565b935060408601356130e581612fc8565b925060608601356130f581612fc8565b9150608086013561310581612fc8565b809150509295509295909350565b602080825282518282018190526000919060409081850190868401855b8281101561318457815180518552868101516001600160a01b039081168887015286820151811687870152606080830151821690870152608091820151169085015260a09093019290850190600101613130565b5091979650505050505050565b60008060008060008060c087890312156131aa57600080fd5b86356131b581612fc8565b955060208701356131c581612fc8565b945060408701356131d581612fc8565b935060608701356131e581612fc8565b925060808701356131f581612fc8565b915060a087013561320581612fc8565b809150509295509295509295565b60006020828403121561322557600080fd5b5035919050565b634e487b7160e01b600052604160045260246000fd5b60405160e0810167ffffffffffffffff811182821017156132655761326561322c565b60405290565b604051610160810167ffffffffffffffff811182821017156132655761326561322c565b604051601f8201601f1916810167ffffffffffffffff811182821017156132b8576132b861322c565b604052919050565b600067ffffffffffffffff8211156132da576132da61322c565b5060051b60200190565b600082601f8301126132f557600080fd5b8135602061330a613305836132c0565b61328f565b82815260059290921b8401810191818101908684111561332957600080fd5b8286015b8481101561334d57803561334081612fc8565b835291830191830161332d565b509695505050505050565b600060c0828403121561336a57600080fd5b60405160c0810167ffffffffffffffff828210818311171561338e5761338e61322c565b81604052829350843591506133a282612fc8565b9082526020840135906133b482612fc8565b816020840152604085013591506133ca82612fc8565b8160408401526133dc60608601612fdd565b60608401526133ed60808601612fdd565b608084015260a085013591508082111561340657600080fd5b50613413858286016132e4565b60a0830152505092915050565b600060e0828403121561343257600080fd5b61343a613242565b9050813581526020820135602082015260408201356040820152606082013560608201526080820135608082015260a082013560a082015260c082013560c082015292915050565b803560088110612fe857600080fd5b803560038110612fe857600080fd5b600080604083850312156134b357600080fd5b823567ffffffffffffffff808211156134cb57600080fd5b908401906101a082870312156134e057600080fd5b6134e8613242565b8235828111156134f757600080fd5b61350388828601613358565b8252506135138760208501613420565b60208201526135256101008401613482565b60408201526135376101208401613491565b60608201526135496101408401613070565b608082015261355b6101608401613070565b60a0820152610180929092013560c083015250946020939093013593505050565b600080600080600060a0868803121561359457600080fd5b853561359f81612fc8565b945060208601356135af81612fc8565b93506040860135925060608601359150608086013561310581613062565b6000806000604084860312156135e257600080fd5b8335600281106135f157600080fd5b9250602084013567ffffffffffffffff8082111561360e57600080fd5b818601915086601f83011261362257600080fd5b81358181111561363157600080fd5b87602082850101111561364357600080fd5b6020830194508093505050509250925092565b602080825260149082015273474d583a20496e76616c6964204164647265737360601b604082015260600190565b634e487b7160e01b600052601160045260246000fd5b81810381811115610c6b57610c6b613684565b600181815b808511156136e85781600019048211156136ce576136ce613684565b808516156136db57918102915b93841c93908002906136b2565b509250929050565b6000826136ff57506001610c6b565b8161370c57506000610c6b565b8160018114613722576002811461372c57613748565b6001915050610c6b565b60ff84111561373d5761373d613684565b50506001821b610c6b565b5060208310610133831016604e8410600b841016171561376b575081810a610c6b565b61377583836136ad565b806000190482111561378957613789613684565b029392505050565b600061078883836136f0565b6000826137ba57634e487b7160e01b600052601260045260246000fd5b500490565b8082028115828204841417610c6b57610c6b613684565b634e487b7160e01b600052603260045260246000fd5b6000602082840312156137fe57600080fd5b5051919050565b80820180821115610c6b57610c6b613684565b60006001820161382a5761382a613684565b5060010190565b60ff81168114611c2657600080fd5b60006020828403121561385257600080fd5b815161078881613831565b818103600083128015838313168383128216171561387d5761387d613684565b5092915050565b60006020828403121561389657600080fd5b815161078881612fc8565b60006101a08201905060018060a01b03808a1683528089511660208401528060208a01511660408401528060408a01511660608401528060608a0151166080840152506138fb60a083018880518252602090810151910152565b855160e08301526020860151610100830152845161012083015260208501516101408301528361016083015282151561018083015298975050505050505050565b60008082840361018081121561395157600080fd5b8351925061016080601f198301121561396957600080fd5b61397161326b565b91506020850151825260408501516020830152606085015160408301526080850151606083015260a0850151608083015260c085015160a083015260e085015160c08301526101008086015160e08401526101208087015182850152610140915081870151818501525081860151818401525050809150509250929050565b60208082526029908201527f474d583a20506f6f6c2077697468207468697320706f6f6c496420646f6573206040820152681b9bdd08195e1a5cdd60ba1b606082015260800190565b634e487b7160e01b600052603160045260246000fd5b600060208284031215613a6157600080fd5b815161078881613062565b6001600160a01b039384168152919092166020820152604081019190915260600190565b600081518084526020808501945080840160005b83811015613ac95781516001600160a01b031687529582019590820190600101613aa4565b509495945050505050565b634e487b7160e01b600052602160045260246000fd5b60088110613afa57613afa613ad4565b9052565b60038110613afa57613afa613ad4565b602080825282516101a083830181905281516001600160a01b039081166101c08601529282015183166101e08501526040820151831661020085015260608201518316610220850152608082015190921661024084015260a0015160c0610260840152600091613b82610280850183613a90565b91506020850151613bd56040860182805182526020810151602083015260408101516040830152606081015160608301526080810151608083015260a081015160a083015260c081015160c08301525050565b506040850151613be9610120860182613aea565b506060850151613bfd610140860182613afe565b506080850151151561016085015260a0850151151561018085015260c0909401519390920192909252919050565b60005b83811015613c46578181015183820152602001613c2e565b50506000910152565b60008151808452613c67816020860160208601613c2b565b601f01601f19169290920160200192915050565b608081526000613c8e6080830187613c4f565b6020830195909552506001600160a01b03929092166040830152606090910152919050565b606081526000613cc66060830186613c4f565b60208301949094525060400152919050565b6000600160ff1b8201613ced57613ced613684565b5060000390565b604081526000613d076040830185613c4f565b90508260208301529392505050565b600081613d2557613d25613684565b506000190190565b600080600060608486031215613d4257600080fd5b8335613d4d81613831565b925060208481013567ffffffffffffffff80821115613d6b57600080fd5b613d77888389016132e4565b94506040870135915080821115613d8d57600080fd5b508501601f81018713613d9f57600080fd5b8035613dad613305826132c0565b81815260059190911b82018301908381019089831115613dcc57600080fd5b928401925b82841015613dea57833582529284019290840190613dd1565b80955050505050509250925092565b60008060408385031215613e0c57600080fd5b823561305481613831565b60208152613e316020820183516001600160a01b03169052565b60006020830151613e4d60408401826001600160a01b03169052565b5060408301516001600160a01b03811660608401525060608301516001600160a01b03811660808401525060808301516001600160a01b03811660a08401525060a08301516001600160a01b03811660c08401525060c08301516101808060e0850152613ebe6101a0850183613a90565b915060e0850151610100601f198685030181870152613edd8483613a90565b90870151610120878101919091528701519093509050610140613f038187018315159052565b860151610160868101919091529095015193019290925250919050565b6000602080830181845280855180835260408601915060408160051b870101925083870160005b82811015613f7557603f19888603018452613f63858351613c4f565b94509285019290850190600101613f47565b5092979650505050505050565b60006020808385031215613f9557600080fd5b825167ffffffffffffffff80821115613fad57600080fd5b8185019150601f8681840112613fc257600080fd5b8251613fd0613305826132c0565b81815260059190911b84018501908581019089831115613fef57600080fd5b8686015b838110156140785780518681111561400b5760008081fd5b8701603f81018c1361401d5760008081fd5b888101516040888211156140335761403361322c565b614044828901601f19168c0161328f565b8281528e828486010111156140595760008081fd5b614068838d8301848701613c2b565b8652505050918701918701613ff3565b509998505050505050505050565b602081526140a06020820183516001600160a01b03169052565b600060208301516140bc60408401826001600160a01b03169052565b5060408301516001600160a01b03811660608401525060608301516001600160a01b03811660808401525060808301516101608060a0850152614103610180850183613a90565b915060a0850151601f198584030160c08601526141208382613a90565b92505060c085015160e085015260e08501516101008181870152808701519150506101206141518187018315159052565b860151610140868101919091529095015193019290925250919050565b60008251614180818460208701613c2b565b9190910192915050565b6020815260006107886020830184613c4f56fea264697066735822122020c19ef7e9341ee1f33012e279d76ec609eadf5dd9ad6c563f9bea89dc81204864736f6c63430008130033",
    "sourcePath": "e:/company work/Arbitrum/contracts/GmxPlugin.sol",
    "compiler": {
        "name": "solc",
        "version": "0.8.19+commit.7dd6d404"
    },
    "functionHashes": {
        "ASSET_DECIMALS()": "f4db8984",
        "MARKET_TOKEN_PRICE_DECIMALS()": "d064f7d0",
        "PRICE_DECIMAL()": "c5849de6",
        "addPool(uint256,address,address,address,address)": "4312a7f8",
        "calculateTokenValueInUsd(address,uint256)": "36a60503",
        "convertDecimals(uint256,uint256,uint256)": "27824675",
        "createOrder(((address,address,address,address,address,address[]),(uint256,uint256,uint256,uint256,uint256,uint256,uint256),uint8,uint8,bool,bool,bytes32),uint256)": "c0941d6f",
        "execute(uint8,bytes)": "fb4d364c",
        "findPoolIndexById(uint256)": "8240a8e3",
        "getMarketTokenPrice(uint256,bool)": "3b0f67f6",
        "getPoolNumber()": "e48caf8d",
        "getPools()": "673a2a1f",
        "getTotalLiquidity()": "35c7e925",
        "getUniqueTokens()": "26a1809b",
        "gmxParams()": "4df227e4",
        "localVault()": "df77209b",
        "master()": "ee97f7f3",
        "owner()": "8da5cb5b",
        "poolExistsMap(uint256)": "ea5a5486",
        "pools(uint256)": "ac4afa38",
        "removePool(uint256)": "a38dcbd0",
        "renounceOwnership()": "715018a6",
        "routerConfig()": "050705bb",
        "setGmxParams(address,address,uint256,uint256,bool)": "e060394b",
        "setMaster(address)": "26fae0d3",
        "setRouterConfig(address,address,address,address,address,address)": "6e862fdb",
        "setTokenPriceConsumer(address)": "a7888a34",
        "tokenPriceConsumer()": "08447586",
        "transferOwnership(address)": "f2fde38b",
        "uniqueTokens(uint256)": "beafdc24"
    },
    "gasEstimates": {
        "creation": {
            "codeDepositCost": "3370200",
            "executionCost": "infinite",
            "totalCost": "infinite"
        },
        "external": {
            "": "186",
            "ASSET_DECIMALS()": "283",
            "MARKET_TOKEN_PRICE_DECIMALS()": "306",
            "PRICE_DECIMAL()": "284",
            "addPool(uint256,address,address,address,address)": "infinite",
            "calculateTokenValueInUsd(address,uint256)": "infinite",
            "convertDecimals(uint256,uint256,uint256)": "infinite",
            "createOrder(((address,address,address,address,address,address[]),(uint256,uint256,uint256,uint256,uint256,uint256,uint256),uint8,uint8,bool,bool,bytes32),uint256)": "infinite",
            "execute(uint8,bytes)": "infinite",
            "findPoolIndexById(uint256)": "infinite",
            "getMarketTokenPrice(uint256,bool)": "infinite",
            "getPoolNumber()": "2381",
            "getPools()": "infinite",
            "getTotalLiquidity()": "infinite",
            "getUniqueTokens()": "infinite",
            "gmxParams()": "10956",
            "localVault()": "2382",
            "master()": "2381",
            "owner()": "2442",
            "poolExistsMap(uint256)": "2561",
            "pools(uint256)": "13292",
            "removePool(uint256)": "infinite",
            "renounceOwnership()": "infinite",
            "routerConfig()": "13065",
            "setGmxParams(address,address,uint256,uint256,bool)": "infinite",
            "setMaster(address)": "27863",
            "setRouterConfig(address,address,address,address,address,address)": "infinite",
            "setTokenPriceConsumer(address)": "26832",
            "tokenPriceConsumer()": "2406",
            "transferOwnership(address)": "infinite",
            "uniqueTokens(uint256)": "4659"
        },
        "internal": {
            "abs(int256)": "127",
            "buyGMToken(uint8,uint256,uint256)": "infinite",
            "isTokenAdded(address)": "infinite",
            "sellGMToken(uint8,uint256)": "infinite",
            "stake(bytes calldata)": "infinite",
            "tokenExistsInList(address)": "infinite",
            "unstake(bytes calldata)": "infinite",
            "updateUniqueTokens()": "infinite"
        }
    }
}